{
  "contractName": "Contract",
  "abi": [
    {
      "inputs": [
        {
          "internalType": "address",
          "name": "_owner",
          "type": "address"
        },
        {
          "internalType": "string",
          "name": "_name",
          "type": "string"
        },
        {
          "internalType": "string",
          "name": "_sr_number",
          "type": "string"
        },
        {
          "internalType": "string",
          "name": "_branch",
          "type": "string"
        },
        {
          "internalType": "string",
          "name": "_date",
          "type": "string"
        },
        {
          "internalType": "string",
          "name": "_grade",
          "type": "string"
        }
      ],
      "stateMutability": "nonpayable",
      "type": "constructor"
    },
    {
      "inputs": [],
      "name": "branch",
      "outputs": [
        {
          "internalType": "string",
          "name": "",
          "type": "string"
        }
      ],
      "stateMutability": "view",
      "type": "function"
    },
    {
      "inputs": [],
      "name": "date",
      "outputs": [
        {
          "internalType": "string",
          "name": "",
          "type": "string"
        }
      ],
      "stateMutability": "view",
      "type": "function"
    },
    {
      "inputs": [],
      "name": "grade",
      "outputs": [
        {
          "internalType": "string",
          "name": "",
          "type": "string"
        }
      ],
      "stateMutability": "view",
      "type": "function"
    },
    {
      "inputs": [],
      "name": "name",
      "outputs": [
        {
          "internalType": "string",
          "name": "",
          "type": "string"
        }
      ],
      "stateMutability": "view",
      "type": "function"
    },
    {
      "inputs": [],
      "name": "owner",
      "outputs": [
        {
          "internalType": "address",
          "name": "",
          "type": "address"
        }
      ],
      "stateMutability": "view",
      "type": "function"
    },
    {
      "inputs": [],
      "name": "sr_number",
      "outputs": [
        {
          "internalType": "string",
          "name": "",
          "type": "string"
        }
      ],
      "stateMutability": "view",
      "type": "function"
    },
    {
      "inputs": [],
      "name": "getName",
      "outputs": [
        {
          "internalType": "string",
          "name": "",
          "type": "string"
        }
      ],
      "stateMutability": "view",
      "type": "function"
    }
  ],
  "bytecode": "0x60806040523480156200001157600080fd5b5060405162000b5938038062000b59833981810160405281019062000037919062000239565b856000806101000a81548173ffffffffffffffffffffffffffffffffffffffff021916908373ffffffffffffffffffffffffffffffffffffffff16021790555084600190805190602001906200008f92919062000100565b508360029080519060200190620000a892919062000100565b508260039080519060200190620000c192919062000100565b508160049080519060200190620000da92919062000100565b508060059080519060200190620000f392919062000100565b50505050505050620004cb565b8280546200010e906200041d565b90600052602060002090601f0160209004810192826200013257600085556200017e565b82601f106200014d57805160ff19168380011785556200017e565b828001600101855582156200017e579182015b828111156200017d57825182559160200191906001019062000160565b5b5090506200018d919062000191565b5090565b5b80821115620001ac57600081600090555060010162000192565b5090565b6000620001c7620001c18462000380565b6200034c565b905082815260208101848484011115620001e057600080fd5b620001ed848285620003e7565b509392505050565b6000815190506200020681620004b1565b92915050565b600082601f8301126200021e57600080fd5b815162000230848260208601620001b0565b91505092915050565b60008060008060008060c087890312156200025357600080fd5b60006200026389828a01620001f5565b965050602087015167ffffffffffffffff8111156200028157600080fd5b6200028f89828a016200020c565b955050604087015167ffffffffffffffff811115620002ad57600080fd5b620002bb89828a016200020c565b945050606087015167ffffffffffffffff811115620002d957600080fd5b620002e789828a016200020c565b935050608087015167ffffffffffffffff8111156200030557600080fd5b6200031389828a016200020c565b92505060a087015167ffffffffffffffff8111156200033157600080fd5b6200033f89828a016200020c565b9150509295509295509295565b6000604051905081810181811067ffffffffffffffff8211171562000376576200037562000482565b5b8060405250919050565b600067ffffffffffffffff8211156200039e576200039d62000482565b5b601f19601f8301169050602081019050919050565b6000620003c082620003c7565b9050919050565b600073ffffffffffffffffffffffffffffffffffffffff82169050919050565b60005b8381101562000407578082015181840152602081019050620003ea565b8381111562000417576000848401525b50505050565b600060028204905060018216806200043657607f821691505b602082108114156200044d576200044c62000453565b5b50919050565b7f4e487b7100000000000000000000000000000000000000000000000000000000600052602260045260246000fd5b7f4e487b7100000000000000000000000000000000000000000000000000000000600052604160045260246000fd5b620004bc81620003b3565b8114620004c857600080fd5b50565b61067e80620004db6000396000f3fe608060405234801561001057600080fd5b506004361061007d5760003560e01c8063323046b11161005b578063323046b1146100dc5780634b72d0d4146100fa5780636f79b13a146101185780638da5cb5b146101365761007d565b806306fdde031461008257806317d7de7c146100a05780631901163a146100be575b600080fd5b61008a610154565b6040516100979190610533565b60405180910390f35b6100a86101e2565b6040516100b59190610533565b60405180910390f35b6100c6610274565b6040516100d39190610533565b60405180910390f35b6100e4610302565b6040516100f19190610533565b60405180910390f35b610102610390565b60405161010f9190610533565b60405180910390f35b61012061041e565b60405161012d9190610533565b60405180910390f35b61013e6104ac565b60405161014b9190610518565b60405180910390f35b60018054610161906105d6565b80601f016020809104026020016040519081016040528092919081815260200182805461018d906105d6565b80156101da5780601f106101af576101008083540402835291602001916101da565b820191906000526020600020905b8154815290600101906020018083116101bd57829003601f168201915b505050505081565b6060600180546101f1906105d6565b80601f016020809104026020016040519081016040528092919081815260200182805461021d906105d6565b801561026a5780601f1061023f5761010080835404028352916020019161026a565b820191906000526020600020905b81548152906001019060200180831161024d57829003601f168201915b5050505050905090565b60028054610281906105d6565b80601f01602080910402602001604051908101604052809291908181526020018280546102ad906105d6565b80156102fa5780601f106102cf576101008083540402835291602001916102fa565b820191906000526020600020905b8154815290600101906020018083116102dd57829003601f168201915b505050505081565b6004805461030f906105d6565b80601f016020809104026020016040519081016040528092919081815260200182805461033b906105d6565b80156103885780601f1061035d57610100808354040283529160200191610388565b820191906000526020600020905b81548152906001019060200180831161036b57829003601f168201915b505050505081565b6003805461039d906105d6565b80601f01602080910402602001604051908101604052809291908181526020018280546103c9906105d6565b80156104165780601f106103eb57610100808354040283529160200191610416565b820191906000526020600020905b8154815290600101906020018083116103f957829003601f168201915b505050505081565b6005805461042b906105d6565b80601f0160208091040260200160405190810160405280929190818152602001828054610457906105d6565b80156104a45780601f10610479576101008083540402835291602001916104a4565b820191906000526020600020905b81548152906001019060200180831161048757829003601f168201915b505050505081565b60008054906101000a900473ffffffffffffffffffffffffffffffffffffffff1681565b6104d981610571565b82525050565b60006104ea82610555565b6104f48185610560565b93506105048185602086016105a3565b61050d81610637565b840191505092915050565b600060208201905061052d60008301846104d0565b92915050565b6000602082019050818103600083015261054d81846104df565b905092915050565b600081519050919050565b600082825260208201905092915050565b600061057c82610583565b9050919050565b600073ffffffffffffffffffffffffffffffffffffffff82169050919050565b60005b838110156105c15780820151818401526020810190506105a6565b838111156105d0576000848401525b50505050565b600060028204905060018216806105ee57607f821691505b6020821081141561060257610601610608565b5b50919050565b7f4e487b7100000000000000000000000000000000000000000000000000000000600052602260045260246000fd5b6000601f19601f830116905091905056fea264697066735822122028f3ce415d5168f22efbfb12c8b1a0b1644a1d7c300de7120548e0a8b150aa7364736f6c63430008000033",
  "immutableReferences": {},
  "source": "pragma solidity ^0.8.0;\r\n\r\ncontract FactoryContract {\r\n    \r\n    address public owner = msg.sender;\r\n    \r\n    address [] public createdContracts;\r\n\r\n\r\n\r\n    event ContractCreated(address contractAddress);\r\n    \r\n    function createContract(string memory _name, string memory _sr_number, string memory _branch, string memory _date, string memory _grade) public {\r\n        \r\n         address newContract = address(new Contract(msg.sender, _name, _sr_number, _branch,  _date, _grade));\r\n         \r\n         \r\n         emit ContractCreated(newContract);\r\n         \r\n         createdContracts.push(newContract);\r\n        \r\n    }\r\n    \r\n    function getDeployedContracts() public view returns (address[] memory)\r\n    {\r\n     return createdContracts;\r\n    }\r\n\r\n    function getOwner() public view returns (address)\r\n    {\r\n     return msg.sender;\r\n    }\r\n\r\n    \r\n}\r\n\r\ncontract  Contract  {\r\n    address public owner;\r\n    string public name;\r\n    string public sr_number;\r\n    string public branch;\r\n    string public date; \r\n    string public grade;\r\n    \r\n    modifier onlyOwner() {\r\n    require(msg.sender == owner);\r\n    _;\r\n        }\r\n    \r\n       constructor  (address _owner, string  memory _name, string memory _sr_number, string memory _branch, string memory _date, string memory _grade) {\r\n        owner = _owner;\r\n        name = _name;\r\n        sr_number=_sr_number;\r\n        branch = _branch;\r\n        date = _date;\r\n        grade = _grade;\r\n\r\n        }\r\n\r\n        \r\n    function getName() public view returns (string memory)\r\n    {\r\n     return name;\r\n    }\r\n\r\n}",
  "sourcePath": "C:\\Users\\91968\\Desktop\\sample\\sampleSite\\contracts\\FactoryContract.sol",
  "compiler": {
    "name": "solc",
    "version": "0.8.0+commit.c7dfd78e.Emscripten.clang"
  },
  "schemaVersion": "3.4.3",
  "updatedAt": "2021-10-24T12:11:34.944Z",
  "devdoc": {
    "kind": "dev",
    "methods": {},
    "version": 1
  },
  "userdoc": {
    "kind": "user",
    "methods": {},
    "version": 1
  }
}