{
  "contractName": "FactoryContract",
  "abi": [
    {
      "anonymous": false,
      "inputs": [
        {
          "indexed": false,
          "internalType": "address",
          "name": "contractAddress",
          "type": "address"
        }
      ],
      "name": "ContractCreated",
      "type": "event"
    },
    {
      "inputs": [
        {
          "internalType": "uint256",
          "name": "",
          "type": "uint256"
        }
      ],
      "name": "createdContracts",
      "outputs": [
        {
          "internalType": "address",
          "name": "",
          "type": "address"
        }
      ],
      "stateMutability": "view",
      "type": "function",
      "constant": true
    },
    {
      "inputs": [],
      "name": "owner",
      "outputs": [
        {
          "internalType": "address",
          "name": "",
          "type": "address"
        }
      ],
      "stateMutability": "view",
      "type": "function",
      "constant": true
    },
    {
      "inputs": [
        {
          "internalType": "string",
          "name": "_name",
          "type": "string"
        },
        {
          "internalType": "string",
          "name": "_sr_number",
          "type": "string"
        },
        {
          "internalType": "string",
          "name": "_branch",
          "type": "string"
        },
        {
          "internalType": "string",
          "name": "_date",
          "type": "string"
        },
        {
          "internalType": "string",
          "name": "_grade",
          "type": "string"
        }
      ],
      "name": "createContract",
      "outputs": [],
      "stateMutability": "nonpayable",
      "type": "function"
    },
    {
      "inputs": [],
      "name": "getDeployedContracts",
      "outputs": [
        {
          "internalType": "address[]",
          "name": "",
          "type": "address[]"
        }
      ],
      "stateMutability": "view",
      "type": "function",
      "constant": true
    },
    {
      "inputs": [],
      "name": "getOwner",
      "outputs": [
        {
          "internalType": "address",
          "name": "",
          "type": "address"
        }
      ],
      "stateMutability": "view",
      "type": "function",
      "constant": true
    }
  ],
  "bytecode": "0x6080604052336000806101000a81548173ffffffffffffffffffffffffffffffffffffffff021916908373ffffffffffffffffffffffffffffffffffffffff16021790555034801561005057600080fd5b506113a8806100606000396000f3fe60806040523480156200001157600080fd5b50600436106200005e5760003560e01c8063088113971462000063578063728283881462000099578063893d20e814620000b95780638da5cb5b14620000db578063aa9a068f14620000fd575b600080fd5b6200008160048036038101906200007b91906200049c565b6200011f565b604051620000909190620005af565b60405180910390f35b620000b76004803603810190620000b191906200039d565b6200015f565b005b620000c36200024a565b604051620000d29190620005af565b60405180910390f35b620000e562000252565b604051620000f49190620005af565b60405180910390f35b6200010762000276565b6040516200011691906200065c565b60405180910390f35b600181815481106200013057600080fd5b906000526020600020016000915054906101000a900473ffffffffffffffffffffffffffffffffffffffff1681565b6000338686868686604051620001759062000306565b6200018696959493929190620005cc565b604051809103906000f080158015620001a3573d6000803e3d6000fd5b5090507fcf78cf0d6f3d8371e1075c69c492ab4ec5d8cf23a1a239b6a51a1d00be7ca31281604051620001d79190620005af565b60405180910390a16001819080600181540180825580915050600190039060005260206000200160009091909190916101000a81548173ffffffffffffffffffffffffffffffffffffffff021916908373ffffffffffffffffffffffffffffffffffffffff160217905550505050505050565b600033905090565b60008054906101000a900473ffffffffffffffffffffffffffffffffffffffff1681565b60606001805480602002602001604051908101604052809291908181526020018280548015620002fc57602002820191906000526020600020905b8160009054906101000a900473ffffffffffffffffffffffffffffffffffffffff1673ffffffffffffffffffffffffffffffffffffffff1681526020019060010190808311620002b1575b5050505050905090565b610b59806200081a83390190565b60006200032b6200032584620006b4565b62000680565b9050828152602081018484840111156200034457600080fd5b620003518482856200077a565b509392505050565b600082601f8301126200036b57600080fd5b81356200037d84826020860162000314565b91505092915050565b6000813590506200039781620007ff565b92915050565b600080600080600060a08688031215620003b657600080fd5b600086013567ffffffffffffffff811115620003d157600080fd5b620003df8882890162000359565b955050602086013567ffffffffffffffff811115620003fd57600080fd5b6200040b8882890162000359565b945050604086013567ffffffffffffffff8111156200042957600080fd5b620004378882890162000359565b935050606086013567ffffffffffffffff8111156200045557600080fd5b620004638882890162000359565b925050608086013567ffffffffffffffff8111156200048157600080fd5b6200048f8882890162000359565b9150509295509295909350565b600060208284031215620004af57600080fd5b6000620004bf8482850162000386565b91505092915050565b6000620004d68383620004e2565b60208301905092915050565b620004ed816200073c565b82525050565b620004fe816200073c565b82525050565b60006200051182620006f7565b6200051d81856200071a565b93506200052a83620006e7565b8060005b8381101562000561578151620005458882620004c8565b975062000552836200070d565b9250506001810190506200052e565b5085935050505092915050565b60006200057b8262000702565b6200058781856200072b565b93506200059981856020860162000789565b620005a481620007ee565b840191505092915050565b6000602082019050620005c66000830184620004f3565b92915050565b600060c082019050620005e36000830189620004f3565b8181036020830152620005f781886200056e565b905081810360408301526200060d81876200056e565b905081810360608301526200062381866200056e565b905081810360808301526200063981856200056e565b905081810360a08301526200064f81846200056e565b9050979650505050505050565b6000602082019050818103600083015262000678818462000504565b905092915050565b6000604051905081810181811067ffffffffffffffff82111715620006aa57620006a9620007bf565b5b8060405250919050565b600067ffffffffffffffff821115620006d257620006d1620007bf565b5b601f19601f8301169050602081019050919050565b6000819050602082019050919050565b600081519050919050565b600081519050919050565b6000602082019050919050565b600082825260208201905092915050565b600082825260208201905092915050565b6000620007498262000750565b9050919050565b600073ffffffffffffffffffffffffffffffffffffffff82169050919050565b6000819050919050565b82818337600083830152505050565b60005b83811015620007a95780820151818401526020810190506200078c565b83811115620007b9576000848401525b50505050565b7f4e487b7100000000000000000000000000000000000000000000000000000000600052604160045260246000fd5b6000601f19601f8301169050919050565b6200080a8162000770565b81146200081657600080fd5b5056fe60806040523480156200001157600080fd5b5060405162000b5938038062000b59833981810160405281019062000037919062000239565b856000806101000a81548173ffffffffffffffffffffffffffffffffffffffff021916908373ffffffffffffffffffffffffffffffffffffffff16021790555084600190805190602001906200008f92919062000100565b508360029080519060200190620000a892919062000100565b508260039080519060200190620000c192919062000100565b508160049080519060200190620000da92919062000100565b508060059080519060200190620000f392919062000100565b50505050505050620004cb565b8280546200010e906200041d565b90600052602060002090601f0160209004810192826200013257600085556200017e565b82601f106200014d57805160ff19168380011785556200017e565b828001600101855582156200017e579182015b828111156200017d57825182559160200191906001019062000160565b5b5090506200018d919062000191565b5090565b5b80821115620001ac57600081600090555060010162000192565b5090565b6000620001c7620001c18462000380565b6200034c565b905082815260208101848484011115620001e057600080fd5b620001ed848285620003e7565b509392505050565b6000815190506200020681620004b1565b92915050565b600082601f8301126200021e57600080fd5b815162000230848260208601620001b0565b91505092915050565b60008060008060008060c087890312156200025357600080fd5b60006200026389828a01620001f5565b965050602087015167ffffffffffffffff8111156200028157600080fd5b6200028f89828a016200020c565b955050604087015167ffffffffffffffff811115620002ad57600080fd5b620002bb89828a016200020c565b945050606087015167ffffffffffffffff811115620002d957600080fd5b620002e789828a016200020c565b935050608087015167ffffffffffffffff8111156200030557600080fd5b6200031389828a016200020c565b92505060a087015167ffffffffffffffff8111156200033157600080fd5b6200033f89828a016200020c565b9150509295509295509295565b6000604051905081810181811067ffffffffffffffff8211171562000376576200037562000482565b5b8060405250919050565b600067ffffffffffffffff8211156200039e576200039d62000482565b5b601f19601f8301169050602081019050919050565b6000620003c082620003c7565b9050919050565b600073ffffffffffffffffffffffffffffffffffffffff82169050919050565b60005b8381101562000407578082015181840152602081019050620003ea565b8381111562000417576000848401525b50505050565b600060028204905060018216806200043657607f821691505b602082108114156200044d576200044c62000453565b5b50919050565b7f4e487b7100000000000000000000000000000000000000000000000000000000600052602260045260246000fd5b7f4e487b7100000000000000000000000000000000000000000000000000000000600052604160045260246000fd5b620004bc81620003b3565b8114620004c857600080fd5b50565b61067e80620004db6000396000f3fe608060405234801561001057600080fd5b506004361061007d5760003560e01c8063323046b11161005b578063323046b1146100dc5780634b72d0d4146100fa5780636f79b13a146101185780638da5cb5b146101365761007d565b806306fdde031461008257806317d7de7c146100a05780631901163a146100be575b600080fd5b61008a610154565b6040516100979190610533565b60405180910390f35b6100a86101e2565b6040516100b59190610533565b60405180910390f35b6100c6610274565b6040516100d39190610533565b60405180910390f35b6100e4610302565b6040516100f19190610533565b60405180910390f35b610102610390565b60405161010f9190610533565b60405180910390f35b61012061041e565b60405161012d9190610533565b60405180910390f35b61013e6104ac565b60405161014b9190610518565b60405180910390f35b60018054610161906105d6565b80601f016020809104026020016040519081016040528092919081815260200182805461018d906105d6565b80156101da5780601f106101af576101008083540402835291602001916101da565b820191906000526020600020905b8154815290600101906020018083116101bd57829003601f168201915b505050505081565b6060600180546101f1906105d6565b80601f016020809104026020016040519081016040528092919081815260200182805461021d906105d6565b801561026a5780601f1061023f5761010080835404028352916020019161026a565b820191906000526020600020905b81548152906001019060200180831161024d57829003601f168201915b5050505050905090565b60028054610281906105d6565b80601f01602080910402602001604051908101604052809291908181526020018280546102ad906105d6565b80156102fa5780601f106102cf576101008083540402835291602001916102fa565b820191906000526020600020905b8154815290600101906020018083116102dd57829003601f168201915b505050505081565b6004805461030f906105d6565b80601f016020809104026020016040519081016040528092919081815260200182805461033b906105d6565b80156103885780601f1061035d57610100808354040283529160200191610388565b820191906000526020600020905b81548152906001019060200180831161036b57829003601f168201915b505050505081565b6003805461039d906105d6565b80601f01602080910402602001604051908101604052809291908181526020018280546103c9906105d6565b80156104165780601f106103eb57610100808354040283529160200191610416565b820191906000526020600020905b8154815290600101906020018083116103f957829003601f168201915b505050505081565b6005805461042b906105d6565b80601f0160208091040260200160405190810160405280929190818152602001828054610457906105d6565b80156104a45780601f10610479576101008083540402835291602001916104a4565b820191906000526020600020905b81548152906001019060200180831161048757829003601f168201915b505050505081565b60008054906101000a900473ffffffffffffffffffffffffffffffffffffffff1681565b6104d981610571565b82525050565b60006104ea82610555565b6104f48185610560565b93506105048185602086016105a3565b61050d81610637565b840191505092915050565b600060208201905061052d60008301846104d0565b92915050565b6000602082019050818103600083015261054d81846104df565b905092915050565b600081519050919050565b600082825260208201905092915050565b600061057c82610583565b9050919050565b600073ffffffffffffffffffffffffffffffffffffffff82169050919050565b60005b838110156105c15780820151818401526020810190506105a6565b838111156105d0576000848401525b50505050565b600060028204905060018216806105ee57607f821691505b6020821081141561060257610601610608565b5b50919050565b7f4e487b7100000000000000000000000000000000000000000000000000000000600052602260045260246000fd5b6000601f19601f830116905091905056fea264697066735822122028f3ce415d5168f22efbfb12c8b1a0b1644a1d7c300de7120548e0a8b150aa7364736f6c63430008000033a2646970667358221220568e4372ad391b1038a59eeb158bf4698088cc2b5555854643da289c7d1a335b64736f6c63430008000033",
  "immutableReferences": {},
  "source": "pragma solidity ^0.8.0;\r\n\r\ncontract FactoryContract {\r\n    \r\n    address public owner = msg.sender;\r\n    \r\n    address [] public createdContracts;\r\n\r\n\r\n\r\n    event ContractCreated(address contractAddress);\r\n    \r\n    function createContract(string memory _name, string memory _sr_number, string memory _branch, string memory _date, string memory _grade) public {\r\n        \r\n         address newContract = address(new Contract(msg.sender, _name, _sr_number, _branch,  _date, _grade));\r\n         \r\n         \r\n         emit ContractCreated(newContract);\r\n         \r\n         createdContracts.push(newContract);\r\n        \r\n    }\r\n    \r\n    function getDeployedContracts() public view returns (address[] memory)\r\n    {\r\n     return createdContracts;\r\n    }\r\n\r\n    function getOwner() public view returns (address)\r\n    {\r\n     return msg.sender;\r\n    }\r\n\r\n    \r\n}\r\n\r\ncontract  Contract  {\r\n    address public owner;\r\n    string public name;\r\n    string public sr_number;\r\n    string public branch;\r\n    string public date; \r\n    string public grade;\r\n    \r\n    modifier onlyOwner() {\r\n    require(msg.sender == owner);\r\n    _;\r\n        }\r\n    \r\n       constructor  (address _owner, string  memory _name, string memory _sr_number, string memory _branch, string memory _date, string memory _grade) {\r\n        owner = _owner;\r\n        name = _name;\r\n        sr_number=_sr_number;\r\n        branch = _branch;\r\n        date = _date;\r\n        grade = _grade;\r\n\r\n        }\r\n\r\n        \r\n    function getName() public view returns (string memory)\r\n    {\r\n     return name;\r\n    }\r\n\r\n}",
  "sourcePath": "C:\\Users\\91968\\Desktop\\sample\\sampleSite\\contracts\\FactoryContract.sol",
  "compiler": {
    "name": "solc",
    "version": "0.8.0+commit.c7dfd78e.Emscripten.clang"
  },
  "schemaVersion": "3.4.3",
  "updatedAt": "2021-10-24T12:12:32.368Z",
  "networkType": "ethereum",
  "devdoc": {
    "kind": "dev",
    "methods": {},
    "version": 1
  },
  "userdoc": {
    "kind": "user",
    "methods": {},
    "version": 1
  }
}